:020000040800F2
:10000000501400207D0200087B1700082D16000800
:1000100079170008B50300089521000800000000CA
:100020000000000000000000000000009D0100082A
:10003000B703000800000000F9010008CD1B00080C
:10004000970200089702000897020008970200082C
:10005000970200089702000897020008970200081C
:10006000970200089702000897020008970200080C
:1000700097020008970200089702000897020008FC
:1000800097020008970200089702000897020008EC
:1000900097020008970200089702000897020008DC
:1000A00097020008970200089702000897020008CC
:1000B00097020008970200089702000897020008BC
:1000C00097020008970200089702000897020008AC
:1000D000970200089702000897020008970200089C
:1000E000B903000897020008970200089702000869
:1000F000970200089702000897020008970200087C
:10010000970200089702000897020008970200086B
:100110009702000897020008A91C0008970200082F
:10012000970200089702000897020008970200084B
:10013000970200089702000897020008970200083B
:10014000970200089702000897020008970200082B
:10015000970200089702000897020008970200081B
:10016000970200089702000897020008970200080B
:10017000970200089702000897020008000000009C
:100180009702000897020008DFF80CD000F000F991
:100190000048004715250008501400202C4B196812
:1001A000086800F05AB880F30988BFF36F8F4FF0EA
:1001B000000080F3118870470000000008480068C4
:1001C000006880F308884FF0000080F3148862B65E
:1001D00061B6BFF34F8FBFF36F8F00DF00BF00BF6B
:1001E00008ED00E0DFF80C00016841F470010160E7
:1001F000704700BF88ED00E0EFF30980BFF36F8F19
:10020000134B1A681EF0100F08BF20ED108A20E96A
:10021000F04F106009B44FF0500080F31188BFF325
:100220004F8FBFF36F8F02F07FFF4FF0000080F31E
:10023000118809BC1968086800F014B81EF0100F86
:1002400008BF00F014B880F30988BFF36F8F7047C0
:100250002C000020EFF30580704730C8B0E8C04F95
:10026000FFF7A1BF30C8B0E8C04FFFF7E7BFB0EC61
:10027000088AB0EC08CAFFF7E6BF000006488047CE
:1002800006480047FEE7FEE7FEE7FEE7FEE7FEE77B
:10029000FEE7FEE7FEE7FEE7651C000889010008AF
:1002A0002DE9F05F0546002092469B4688460646AB
:1002B000814640241BE0284641464746224600F03E
:1002C00056F853465A46C01A914110D31146184663
:1002D000224600F03DF82D1A67EB01084F462246F2
:1002E0000120002100F034F817EB00094E41201ED8
:1002F000A4F10104DFDC484631462A46434600F0BB
:1003000000B830BCBDE8C09F40EA01039B0703D0A2
:1003100009E008C9121F08C0042AFAD203E011F844
:10032000013B00F8013B521EF9D27047D2B201E006
:1003300000F8012B491EFBD270470022F6E710B5EA
:1003400013460A4604461946FFF7F0FF204610BD43
:10035000202A04DB203A00FA02F100207047914085
:10036000C2F1200320FA03F3194390407047202A7A
:1003700004DB203A21FA02F00021704721FA02F34F
:10038000D040C2F120029140084319467047000056
:10039000064C074D06E0E06840F0010394E80700D2
:1003A00098471034AC42F6D3FFF7F2FEF43C000855
:1003B000143D0008FEE770474FF4005000F00CB801
:1003C00070470000B0F5005F02D1024901200870BB
:1003D0007047000000000020044910B50A6802427E
:1003E00002D00860FFF7EEFF10BD000014040140CA
:1003F0002DE9F84FDFF898B100234FF0010C4FF0D2
:10040000030A4FF00F090BF1040EB9E00CFA03F4E4
:10041000224070D04D68022D01D0122D0ED1DD0882
:1004200000EB8508D8F820505E07F70E09FA07F6AA
:10043000B5430E69BE402E43C8F8206007685E00D1
:1004400091F804800AFA06F508F00308AF4308FAA9
:1004500006F848EA0708C0F800804F68012F05D069
:10046000022F03D0112F01D0122F13D1D0F8088002
:10047000CF6828EA0508B74047EA08078760D0F840
:1004800004800F7928EA0408C7F300179F4047EA61
:1004900008074760D1F804806FEA0807BF0706D154
:1004A000C76AA743C8F3C0049C403C43C462C46805
:1004B000AC438D68B5402543C5604C68E4005ED50B
:1004C000344C256E45F001052566246E23F00305A6
:1004D00004F001040094304C2E19B4689D072F0FCE
:1004E00009FA07F5AC43B0F1904F05D02B4DA84267
:1004F00004D101251CE042E0002519E0284DA84266
:1005000001D1022514E0274DA84201D103250FE0B7
:10051000254DA84201D104250AE0244DA84201D16D
:10052000052505E0224DA84201D1062500E007255A
:10053000BD402543B560DBF800405D464E689443FE
:10054000F60300D514432C60DEF8004075464E6873
:100550009443B60300D514432C600D4D08352C6828
:100560004E689443F60200D514432C60084D0C35B8
:100570002C684E689443B60200D514432C605B1C73
:100580000A6832FA03F57FF441AF00F013B80000B7
:100590000004014000100240000001400004004837
:1005A00000080048000C00480010004800140048F3
:1005B0000018004818BCBDE8E08F0069084000D072
:1005C0000120704742690A4201D08162704781610F
:1005D00070470AB181617047816270470148806845
:1005E000704700001C0000200248816842681144E6
:1005F000816070471C000020094810B50168002484
:1006000041F480710160032000F08EF8002000F0BA
:1006100009F808B1012401E000F03EF8204610BDC1
:100620000020024000B5014687B00022362000F0CD
:100630005BF8362000F04AF81348816D41F0100154
:100640008165806D05A900F010000690684600F0F5
:1006500021FB00F03FFB0D490D4AB0FBF1F10D48C5
:10066000491E0260416040F2E7320021C0E90321E7
:10067000816000F018FE10B1012007B000BD0548F0
:1006800000F02EFEF9E700000010024040420F008B
:1006900000100040E40200200B4882B0016E41F0DF
:1006A00001010166016E01F001010091816D41F0CF
:1006B00080518165806D002200F0805000900F21F4
:1006C000901E02B000F010B800100240002809DBB4
:1006D00000F01F02012191404009800000F1E0205C
:1006E000C0F8001170470000F0B40E4B1B680C46B8
:1006F000C3F30223C3F10705042D00D90425191DF6
:10070000072901D2002300E0DB1E012606FA05F1CD
:10071000491E214099409E40761E16403143F0BC50
:1007200001F05EBD0CED00E0064900F0070208682C
:100730004FF6FF03184040EA0220034A10430860C6
:10074000704700000CED00E00000FA051649B0F516
:10075000007F0868C0F3412009D0022805D008684E
:1007600020F4C06040F480600860002070470128D9
:10077000FBD0086820F4C06040F4007008600B48AB
:100780003222006850430A4AB0FBF2F0401C00E0FD
:10079000401E4A69520501D50028F9D14869400533
:1007A000E3D50320704700000070004028000020BF
:1007B00040420F000248006800F4C060704700002B
:1007C000007000402DE9F84F044600270088E54DF1
:1007D0003E46010504F1200B1DD5606E78B1B0F5E1
:1007E000800F11D0B0F5000F04D0B0F5400F22D02B
:1007F00001270FE0E86840F48030E8601BE000214A
:10080000201D00F0BBFF03E00021584601F04CF82A
:10081000070010D03E462088C00426D5A06EC0B187
:10082000B0F1807F1AD0B0F1007F0DD0B0F1407FE1
:1008300019D0012718E0D5F88800616E20F4400037
:100840000843C5F88800E6E7E86840F48030E860CF
:1008500009E00021201D00F091FF03E0002158462F
:1008600001F022F80746F7B13E46206880033AD5EA
:10087000A86D4FF00008C00009D4A86D40F080506A
:10088000A865A86D4FF0010800F080500090DFF8D7
:10089000D8A2DAF8001041F48071CAF80010FFF70E
:1008A0009DFE814610E0D5F88800A16E20F04070D2
:1008B0000843C5F88800D8E7FFF790FEA0EB0900D1
:1008C000022801D9032705E0DAF80000C005F3D5B6
:1008D000002F7CD04FEA0706B8F1000F03D0A86DB7
:1008E00020F08050A8652078C00707D0D5F8880090
:1008F000A16B20F003000843C5F88800207880072A
:1009000007D5D5F88800E16B20F00C000843C5F846
:1009100088002078400707D5D5F88800216C20F0A2
:1009200030000843C5F888002078000707D5D5F8BF
:100930008800616C20F0C0000843C5F8880020786A
:10094000C00607D5D5F88800A16C20F44070084394
:10095000C5F888002078800607D5D5F88800E16CB6
:1009600020F440600843C5F888002088800507D53A
:10097000D5F88800E16D20F440200843C5F88800D0
:100980002088400507D5D5F88800216E20F4401056
:100990000843C5F888002078400607D5D5F88800B8
:1009A000216D20F440500843C5F8880020780006E7
:1009B00007D5D5F88800616D20F440400843C5F89C
:1009C00088002088C00509D5D5F8880000E01CE023
:1009D000A16D20F440300843C5F8880020884FF00E
:1009E000006780044FF080684FD5D5F88800E16E2D
:1009F00020F040600843C5F88800E06EB8423CD162
:100A0000E86840F48010E8603FE0D5F8900010F40A
:100A1000407015D0D4F88410814211D0D5F89000E0
:100A2000D5F8901020F4407041F48031C5F8901052
:100A3000D5F8901021F48031C5F89010C5F89000D9
:100A4000C00710D0FFF7CAFD074641F2883906E01B
:100A5000FFF7C4FDC11B494501D903263CE7D5F882
:100A600090008007F4D5D5F89000D4F8841020F4D5
:100A700040700843C5F890002EE7404505D101219C
:100A8000201D00F07BFE00B106462068000317D54C
:100A9000D5F88800216F20F040600843C5F8880031
:100AA000206FB84204D1E86840F48010E86007E0A5
:100AB000404505D10121201D00F060FE00B1064631
:100AC0002068400317D5D5F88800616F20F040609A
:100AD0000843C5F88800606FB84204D1E86840F464
:100AE0008010E86007E0404505D10121201D00F09D
:100AF00045FE00B10646208840041AD5D5F8880086
:100B0000A16F20F040500843C5F88800A06FB0F1F5
:100B1000805F03D0B0F1005F05D00AE00221201D04
:100B200000F02CFE03E00221584600F0BDFE00B1AB
:100B300006462088000407D5D5F88800E16F20F02C
:100B400080400843C5F888002068C00307D555F8E1
:100B5000880FD4F8801020F0004008432860304609
:100B600000F004B8001002400070004018BCBDE85E
:100B7000E08F00002DE9F0470F46050058D0404EA9
:100B8000306800F00700B84209D2306820F0070052
:100B900038433060306800F00700B84248D1287808
:100BA000384CC0072CD06868032811D0022812D016
:100BB000216898B1490500293ADAA16821F00301BA
:100BC0000143A160FFF70AFD804641F2883910E039
:100BD00021688901EFE721688903ECE78907EAE7E3
:100BE000FFF7FCFCA0EB0801494502D90320BDE852
:100BF000F087A068696800F00C00B0EB810FEFD1BE
:100C00002878800705D5A068A96820F0F00008437F
:100C1000A060306800F00700B8420BD9306820F0BF
:100C2000070038433060306800F00700B84201D058
:100C30000120DCE72878400705D5A068E96820F4A2
:100C4000E0600843A0602878000706D5A0682969FD
:100C500020F4605040EAC100A06000F05FF8A16895
:100C6000094AC1F30311515C01F01F01C840074953
:100C7000086007480068BDE8F047FFF7D3BC0000F4
:100C80000020024000100240883C0008280000209C
:100C90001C0000200F2202600C4A936803F003033B
:100CA0004360936803F0F0038360936803F4E063A8
:100CB000C36092684FF4E06303EAD2020261044821
:100CC000006800F007000860704700000010024054
:100CD000002002400548064900688968054AC1F3BA
:100CE0000221515C01F01F01C8407047280000201C
:100CF00000100240C83C00080548064900688968A1
:100D0000054AC1F3C221515C01F01F01C840704780
:100D10002800002000100240C83C000870B525499A
:100D2000002318468A68CC6812F00C0204F003060F
:100D3000214C4FEA640509D00C2A05D0042A32D090
:100D4000082A00D1284670BD012E10D10B681B0760
:100D500004D4D1F89430C3F3032302E00B68C3F347
:100D60000313164E56F82330DAB10C2AEBD1C868BB
:100D700000F00300022818D0032818D01846CA68CB
:100D8000CB68C2F30212C3F306234343521CB3FBE6
:100D9000F2F2C868C0F34160401C4000B2FBF0F0C2
:100DA00070BD184670BD204670BD2046E7E7284656
:100DB000E5E70000001002400024F400983C000821
:100DC0002DE9F84304006ED0FD4DA86800F00C0634
:100DD000E86800F003072078C00663D576B10C2ED2
:100DE00001D1012F0AD0A0690028286878D040F0EE
:100DF00001002860FFF7F2FB80465BE0286880076F
:100E000002D5A0690028DED0216A2868000703D532
:100E1000286800F0F00004E0D5F89400F02202EA1F
:100E20001010814216D9084600F0C2FD00283AD1C0
:100E3000286840F0080028602868216A20F0F00047
:100E4000084328606868E16920F47F4040EA012097
:100E5000686015E0286840F0080028602868216A6A
:100E600020F0F000084328606868E16920F47F40C2
:100E700040EA01206860206A00F09AFD0028D6D17F
:100E8000FFF74CFFA968CF4AC1F30311515C01F091
:100E90001F01C840CC490860CC480068FFF7C2FB7E
:100EA00000287DD12DE0C9E0FFF798FBA0EB0800FA
:100EB000022876D828688007F6D5286840F0080010
:100EC00028602868216A20F0F000084328606868DC
:100ED000E16920F47F4040EA0120686011E0FFE70B
:100EE00020F001002860FFF779FB804606E000BF94
:100EF000FFF774FBA0EB08000228DAD82868800707
:100F0000F6D42078C00740D0082E18D00C2E01D17E
:100F1000032F14D06068B0F5803F17D0B0F5A02F34
:100F2000286817D020F480302860286820F48020BA
:100F300028606068E0B1FFF751FB804614E0286844
:100F4000800322D56068002878D01EE0286840F42D
:100F50008030EDE740F480202860F7E7FFF73EFBA4
:100F6000A0EB08006428A4D828688003F6D50CE01C
:100F7000FFF734FB804605E0FFF730FBA0EB0800ED
:100F8000642896D828688003F6D4207880073BD55B
:100F9000042E11D00C2E01D1022F0DD0E06801E0FB
:100FA0003EE19FE0002828681ED040F48070286051
:100FB000FFF714FB07460CE0286840050CD5E068F5
:100FC0000028C1D008E000BFFFF708FBC01B0228C3
:100FD00093D828684005F7D56868217C20F0F85040
:100FE00040EA016068600FE020F480702860FFF73D
:100FF000F5FA074605E000BFFFF7F0FAC01B02282C
:1010000070D828684005F7D42078000729D5606992
:101010000028D5F8940012D040F00100C5F89400E3
:10102000FFF7DCFA074604E0FFF7D8FAC01B0228F6
:1010300058D8D5F894008007F6D512E029E120F0C1
:101040000100C5F89400FFF7C9FA074605E000BFA4
:10105000FFF7C4FAC01B022844D8D5F894008007D3
:10106000F6D42078400768D5A86D0027C00008D4C2
:10107000A86D40F08050A865A86D012700F0805051
:10108000009053480168C90512D40168814641F4B3
:1010900080710160FFF7A2FA804605E0FFF79EFA33
:1010A000A0EB080002281DD8D9F80000C005F5D52E
:1010B000A068012817D00528D5F8900018D020F096
:1010C0000100C5F89000D5F8900020F0040000BFA2
:1010D000C5F89000A06841F28839D0B1FFF77EFAD8
:1010E000804611E06BE0D5F8900040F00100EFE79A
:1010F00040F00400C5F89000F5E700BFFFF76EFA76
:10110000A0EB080149455AD8D5F890008007F5D5DD
:101110000EE0FFF763FA804606E000BFFFF75EFAD5
:10112000A0EB080149457AD8D5F890008007F5D49E
:101130001FB1A86D20F08050A865A06AF0B30C2EF6
:1011400075D00228286820F08070286004D02868B4
:1011500010F0205F51D054E0FFF740FA064604E05B
:10116000FFF73CFA801B022859D828688001F7D481
:10117000D4E90B016FF00F0202EB01110843A18FBC
:101180005204490802EB4151626B41EA02210843D3
:1011900094F840104FF07E42490802EB4161084349
:1011A000A16B090940EA4140E9680A4A1140084335
:1011B000E860286840F0807028600DE06BE02EE069
:1011C00000100240883C0008280000201C0000207D
:1011D000007000408C809DF9E86840F08070E86005
:1011E000FFF7FCF9044604E0FFF7F8F9001B0228BA
:1011F00015D828688001F7D54DE0E86820F0030095
:10120000E860E86825490840E860FFF7E7F9044628
:1012100009E000BFFFF7E2F9001B022803D9032011
:10122000BDE8F88303E028688001F3D433E00128A7
:10123000F6D0E868E26A00F00301914229D1216BFF
:1012400000F0700209011039914222D1626B00F462
:10125000FE41B1EB022F1CD1A26B00F40031072A32
:1012600001D0012200E00022914212D1A18F00F4AE
:10127000C00249084905A1F50011914209D194F82D
:10128000401000F0C06049084906A1F10071814298
:1012900001D00120C4E70020C2E70000FFFFEEFEFE
:1012A00070477047704710B5040003D094F83D00B4
:1012B00010B107E0012010BD002084F83C0020465A
:1012C00000F00CF8022084F83D00211D206800F099
:1012D000F1FC012084F83D00002010BD70470000A3
:1012E0000168CA6842F00102CA6001688868064A5B
:1012F0001040062806D0B0F5803F03D0086840F0C3
:10130000010008600020704707000100704770B5B9
:101310000446006801694FF00005C943890715D4E8
:10132000C168C943890711D4E91E016101202077F2
:10133000206880698007204602D0FFF7E7FF04E0BD
:1013400000F0A7F8204600F0A5F82577206801698D
:10135000C943490717D4C168C943490713D46FF07B
:1013600004010161022020772068806910F4407F29
:10137000204602D0FFF7CAFF04E000F08AF82046BA
:1013800000F088F8257720680169C943090716D459
:10139000C168C943090712D46FF008010161042034
:1013A00020772068C0698007204602D0FFF7AEFF93
:1013B00004E000F06EF8204600F06CF82577206815
:1013C0000169C943C90617D4C168C943C90613D402
:1013D0006FF010010161082020772068C06910F4C7
:1013E000407F204602D0FFF791FF04E000F051F863
:1013F000204600F04FF8257720680169C943C907E6
:1014000008D1C168C943C90704D1891E01612046BA
:1014100000F042F820680169C943090609D4C1688F
:10142000C943090605D46FF0800101612046FFF72A
:1014300038FF20680169C943C90509D4C168C94397
:10144000090605D46FF4807101612046FFF728FF7B
:1014500020680169C943490609D4C168C9434906DE
:1014600005D46FF040010161204600F01FF82068AC
:101470000169C94389060BD4C168C943890607D4E9
:101480006FF0200101612046BDE87040FFF70ABF00
:1014900070BD70477047000000680349884201D161
:1014A000FFF7A2B87047000000100040704710B569
:1014B000040002D0606F10B107E0012010BD0020D1
:1014C00084F87000204600F025F82420606720682A
:1014D000016821F001010160204600F0DBFC0128D9
:1014E000ECD0606A10B1204600F044FC20684168EE
:1014F00021F4904141602068816821F02A018160D7
:101500002068016841F0010101602046BDE81040FB
:1015100000F094BC10B586B0044614216846FEF76E
:101520000CFF1349206888421FD11248816D41F495
:1015300000318165816D01F400310591C16C41F08C
:101540000101C164C06C694600F0010005900C20E7
:1015500000900220019000200290032003900720B9
:1015600004904FF09040FEF743FF06B010BD00001E
:1015700000440040001002402DE9F8430446406F4B
:101580001F4616460D4620284ED1CDB1C6B194F85F
:101590007000012848D0012084F870004FF0000846
:1015A000C4F87C8021206067FFF718F8A4F8506029
:1015B0008146A4F85260A068B0F5805F03D004E0D3
:1015C0000120BDE8F883206910B12E46002510E007
:1015D00000260EE08021204600F0ACFDB8B9C6B16F
:1015E00016F8010B21680885B4F85200401EA4F8D3
:1015F0005200B4F852004B464FF00002009700280A
:10160000E8D14FF04001204600F094FD30B10320B6
:10161000D7E735F8020BC0F30800E3E72020606746
:1016200084F870800020CCE70220CAE7FEE70000C3
:1016300010B598B0002015901690012115A800F063
:1016400088FF124C1C22124960616846FEF75CFE5E
:101650000021684600F0F6FF0D49A0601C221C31F5
:1016600007A8FEF751FE002107A800F0EBFF08498C
:10167000E0601C2238310EA8FEF746FE00210EA8BD
:1016800000F0E0FF206118B010BD00000400002051
:10169000343C000830B587B014216846FEF74DFE93
:1016A0002348C16C41F00401C164C16C01F0040124
:1016B0000591C16C41F08001C164C16C01F08001F1
:1016C0000591C16C41F00101C164C16C01F00101DF
:1016D0000591C16C41F00201C164C06C4FF09045AE
:1016E00000F002000590002220212846FEF771FF3D
:1016F0004FF4005000900F480124CDE901046946E1
:101700000D48FEF775FE202000900021CDE9014133
:10171000039169462846FEF76BFE0022052128202A
:10172000FEF7E2FF2820FEF7D1FF07B030BD000032
:101730000010024000002110000800480D4810B5BC
:101740000B4901604FF4E1314160002181600C22BE
:10175000C160C0E904128161C16101624162FFF7A9
:10176000A6FE002803D0BDE81040FEF729BE10BD3C
:101770000044004024030020FEE770472DE9F041BB
:10178000444C05468846E0680026810728680DD04D
:10179000E16801F00301814216D1A8B1E0686968EF
:1017A000C0F30210401C88420ED120E0012804D072
:1017B000022805D0032807D108E02168890701E045
:1017C00021684905002907DB01265FE021688903BC
:1017D00002D421684903F5E7E1686A686FF00F03F6
:1017E00021F0730103EB021211430143E160206811
:1017F00020F080602060FEF7F1FE074605E000BFA4
:10180000FEF7ECFEC01B022837D820680001F7D491
:10181000B8F1000F18D0B8F1010F1ED0287D4FF09D
:101820007E41400801EB4060A96840EA012021693F
:10183000194A114008432061206840F08060206010
:10184000FEF7CCFE07461AE0A868E968000209091D
:1018500040EA41402169114AEBE7288A10494008D3
:1018600001EB4050A96840EA012021690D4AE0E7F8
:10187000FEF7B4FEC01B022801D9032606E020684B
:101880000001F5D52069A969084320613046BDE80B
:10189000F081000000100240FF80FFF9FF80FDFF93
:1018A0000000E0FFFF809FFF2DE9F0413D4C064620
:1018B0008846E0680025810730680DD0E16801F0B6
:1018C0000301814216D1A8B1E0687168C0F302102B
:1018D000401C88420ED120E0012804D0022805D007
:1018E000032807D108E02168890701E0216849053C
:1018F000002907DB012551E02168890302D4216812
:101900004903F5E7E16872686FF00F0321F0730196
:1019100003EB021211430143E160206820F0805084
:101920002060FEF75BFE074605E000BFFEF756FEAF
:10193000C01B022829D820688000F7D4B8F1000F16
:1019400015D0307C4FF07E41400801EB4060B1681B
:1019500040EA01206169144A11400843606120682F
:1019600040F080502060FEF739FE07460FE0B06877
:10197000F1680002090940EA414061690B4AEBE75E
:10198000FEF72CFEC01B022801D9032506E02068C3
:101990008000F5D560697169084360612846BDE83B
:1019A000F081000000100240FF80FFF9FF80FDFF82
:1019B000F8B51C4D06460024A86DC00002D5FEF700
:1019C000F9FE0DE0A86D40F08050A865A86D00F00C
:1019D00080500090FEF7EEFEA96D21F08051A965C0
:1019E000B0F5007F04D0802E07D94FF003040AE041
:1019F000802E08D9A02E01D804E001D1022402E0F3
:101A0000702E00D101240848016821F0070121430C
:101A10000160006800F00700A04201D00120F8BD7D
:101A20000020F8BD00100240002002404FF4005694
:101A30001B4CDFF870901C4DDFF870A04FF00008D1
:101A40004FF4FA7B31462046FEF7B7FD78B999F896
:101A500000004F4601280AD11E2000F06EFD3146DD
:101A60002046FEF7AAFD10B93878012802D0287860
:101A700020B111E085F8008087F800805746DAF839
:101A8000040001F06DF9414609A0C7F8048000F098
:101A900083FBB86801F06EFA584600F04EFDD1E7BE
:101AA0000008004800000020010000200400002081
:101AB000706275666665722773206164647265730F
:101AC0007320616674657220506F7274467265652A
:101AD000202523780D0A00000D4D00244FF090467C
:101AE0004FF4FA77641CE4B220213046FEF76AFD19
:101AF000384600F022FD322CF4D106A000F04CFB59
:101B0000686900F045FD002001F0A8FA0024E9E72B
:101B100004000020205461736B3120746F207265C3
:101B20006C6561736520612053656D6170686F72CB
:101B300065200D0A000000004FF0FF35104C4FF4F7
:101B4000FA762946606900F04BFDA0B92078401C68
:101B500020703C2000F0F2FF6060011E0BD009A055
:101B600000F01AFB227810A1606800F025FB12A09B
:101B7000616800F011FB304600F0DFFCE1E7000097
:101B800004000020746865206164647265737320CA
:101B90006F66206D656D6F7279206973203D202519
:101BA0002378200D0A00000073656D2072756E7336
:101BB000202564200D0A000020706275666665723B
:101BC000203D202573200D0A0000000010B5502094
:101BD00080F31188BFF34F8FBFF36F8F01F094FE36
:101BE00018B104494FF080500860002080F311883C
:101BF00010BD000004ED00E030B5B9B0442122A8CA
:101C0000FEF79BFB142133A8FEF797FB882168465B
:101C1000FEF793FB0120022401042C940325CDE957
:101C20002201CDE92D5014202F900720CDE930045A
:101C300022A83294FFF7C4F80F20CDE93305002520
:101C400035953695042133A83795FEF793FF0F9508
:101C500068460094FEF7B6FD2002FEF777FD39B026
:101C600030BD00000D48016841F4700101600C486E
:101C7000016841F001010160002181600268094BA7
:101C80001A4002608214C260026822F4802202605C
:101C900081610249C00380390860704788ED00E027
:101CA00000100240FFFFF6EA0148FFF730BB0000DA
:101CB000E40200202DE9F0470268264B264D274E0E
:101CC000274F284C4FF0804A984209D0504507D002
:101CD000A84205D0B04203D0B84201D0A04204D1FE
:101CE00022F0700C4A6842EA0C02DFF87CC0DFF890
:101CF0007C80DFF87C9098420FD050450DD0A842F0
:101D00000BD0B04209D0B84207D0A04205D0604500
:101D100003D0404501D0484503D122F44075CA683C
:101D20002A434D6922F080022A4302608A68C26217
:101D30000A688262984207D0A04205D0604503D06D
:101D4000404501D0484501D1096901630121416144
:101D5000BDE8F087002C014000040040000800406E
:101D6000000C0040003401400040014000440140AC
:101D70000048014090F82410C90706D001684A685D
:101D8000836A22F400321A434A6090F824108907CB
:101D900006D501684A68C36A22F480321A434A6051
:101DA00090F82410490706D501684A68036B22F4AD
:101DB00080221A434A6090F82410090706D501686A
:101DC0004A68436B22F400421A434A6090F8241098
:101DD000C90606D501688A68836B22F480521A43CB
:101DE0008A6090F82410890606D501688A68C36B5A
:101DF00022F400521A438A6090F82410490611D543
:101E000001684A68036C22F480121A434A60016C2C
:101E1000B1F5801F06D101684A68436C22F4C00204
:101E20001A434A6090F82410090606D501684A68EA
:101E3000806C22F4002202434A607047F8B5002605
:101E40000446C667FEF7CAFB0546206800686FF0C7
:101E50007E47000708D52B4600224FF4001120468C
:101E6000009700F067F960B92068006840070AD55C
:101E70002B4600224FF480012046009700F05AF9CB
:101E800008B10320F8BD20206067A06784F8706067
:101E90000020F8BD2DE9F0410546016880682B69F6
:101EA000EC6918436B69002723431843954A0B6874
:101EB000954C234003430B6028684168EB6821F48C
:101EC0004051194341602968A869914201D02B6AA9
:101ED00018438B6823F4306303438B608B4B296872
:101EE0008B4899420DD1D0F8880010F0030006D03D
:101EF000012868D0022864D0032851D165E001246C
:101F00004FE0844B99420BD1D0F8880010F00C00C0
:101F100055D0042857D0082853D00C2840D154E07D
:101F20007D4B99420BD1D0F8880010F0300046D09C
:101F3000102848D0202844D0302831D145E0774BB4
:101F400099420BD1D0F8880010F0C00037D040285B
:101F500039D0802835D0C02822D136E0704B994244
:101F60000ED1D0F8880010F4407028D0B0F5807FF2
:101F700029D0B0F5007F24D0B0F5407F10D124E007
:101F800091420DD1D0F8880010F4406017D0B0F520
:101F9000806F18D0B0F5006F13D0B0F5406F14D03B
:101FA0001024604B00264FF40040914245D174B19B
:101FB000022C0FD0042C0FD0082C18D10FE00024D5
:101FC000EFE70224EDE70424EBE70824E9E7FEF756
:101FD00081FE03E0184602E0FEF7A0FEA8B36A689F
:101FE00002EB4201814202D8B0EB023F01D9012746
:101FF00075E0DFF834815CB1022C0CD0042C13D0D6
:10200000082CF4D150082105401846F1000105E0E4
:10201000FEF760FE0AE050084449F5E70023FEF7AA
:102020003FF9A0F5407156E0FEF778FE6A68010EB0
:102030000302500818187141F0E7E9694FF6EF788C
:1020400081422FD1092CD2D200E048E0DFE804F031
:1020500006092005230505052600C8E7FEF73AFE18
:1020600001E0FEF749FE4100D5F8040001EB500104
:10207000B1FBF0F080B2A0F110014145B7D84FF6A6
:10208000F0710140C0F3420001432868C16026E0BE
:1020900027496868EAE7FEF741FEE4E74FF480313C
:1020A0006868E3E7092CA2D2DFE804F006091E0500
:1020B0002205050525009AE7FEF70CFE01E0FEF774
:1020C0001BFE0146686801EB500100BFB1FBF0F058
:1020D00080B2A0F11001414589D82968C8602E66F8
:1020E00038466E66BDE8F081686803EB5001EDE7A5
:1020F000FEF714FEE5E7696800EB5100B0FBF1F074
:10210000E6E7000000800040F369FFEF003801407F
:10211000001002400044004000480040004C0040D5
:10212000005000400024F400FFFC0F00000024F4E5
:102130000048E8012DE9F041984617460E4604464E
:10214000069D08E0681C06D0FEF748FAA0EB0800E0
:10215000A8420BD855B12068C06936EA000017D0F4
:102160000020B842EED00020BDE8F0812068016870
:1021700021F4D07101602068816821F00101816043
:1021800020206067A067002084F870000320EBE740
:102190000120E6E7FEE700000FB4054B10B503A9E8
:1021A000044A029800F03CF810BC5DF814FB0000F3
:1021B000F12400088C0000200FB4084B10B504A9CE
:1021C00002AA039800F02CF8044602A9002000F0AF
:1021D0008AF9204610BC5DF814FB0000E7240008D3
:1021E0000907090E002804DB00F1E02080F8001444
:1021F000704700F00F0000F1E02080F8141D7047D8
:1022000002E008C8121F08C1002AFAD170477047BF
:10221000002001E001C1121F002AFBD1704700001D
:102220002DE9FF4F8DB09B460F460446002606E081
:1022300025280BD05A460F999047641C761C2078AD
:102240000028F5D111B0304600F04AB90025A84663
:102250000122984900E0054314F8013F203B02FAAF
:1022600003F00842F7D120782E2817D114F8010F77
:1022700045F004052A280ED06FF02F022078A0F137
:10228000300109290AD808EB880102EB410100EB73
:102290000108641CF2E757F8048B641C20786C2852
:1022A0000DD004DC4C2812D06A2811D104E0742827
:1022B0000DD07A280CD10AE045F4001507E06178CA
:1022C00045F48015814202D1641C05F58015641C1B
:1022D0002278692A45D008DC002AB3D0582A69D070
:1022E000632A10D0642A08D13BE0702A67D0732A91
:1022F00013D0752A5CD0782A5CD010465A460F99C4
:102300009047761CD3E017F8040B8DF800000020EE
:102310008DF80100E946012003E057F8049B4FF0D7
:10232000FF3069074FF0000501D40AE06D1C4545F8
:102330000DDA8542FADB19F805100029F6D106E01E
:102340006D1C8542FCDB19F805100029F8D12E44DC
:1023500004E019F8010B5A460F9990476D1EF8D208
:10236000A5E00A200021CDE90801C5F302500228AA
:102370000DD001CFC117031E71F100030DDA4FF02C
:10238000000CD0EB0C006CEB01012D2308E0FF1DCD
:1023900027F00707F7E80201EDE72B0504D52B230B
:1023A0008DF8283001233BE0EB0739D02023F7E7F5
:1023B0000A2000E010200021CDE9080107E01020EC
:1023C000002145F00405CDE908014FF00808C5F3E8
:1023D000025002280FD001CF00214FF0000A2B0736
:1023E0001FD5702A0DD0DDE908C38CF0100C5CEA13
:1023F000030C0CD015E0FF1D27F00707F7E80201DA
:10240000EBE740228DF828204FF0010A0BE050EA5C
:10241000010306D030238DF828308DF829200223BF
:102420009A46582A04D024A20DF120090B9209E003
:1024300026A2F9E7DDE90823FDF732FF0B9B9B5C41
:1024400009F8013D50EA0102F4D1ADEB090020305A
:102450000890680701D44FF001080899884502DD0B
:10246000A8EB010000E000208046002506E00AA855
:102470005A46405D0F9990476D1C761C5545F6DB1A
:1024800004E030205A460F999047761CB8F10001BD
:10249000A8F10108F5DC05E019F8010B5A460F997F
:1024A0009047761C0899481E08900029F4DC641CAB
:1024B000C5E60000092801003031323334353637A3
:1024C0003839616263646566000000003031323380
:1024D0003435363738394142434445460000000020
:1024E00030BCBDE8C08F0A68531C0B601070704789
:1024F00013B54FF6FF73012269460248FFF73CF817
:1025000000981CBD24030020EFF30580002800D0B4
:1025100001207047FEF770F8FFF76EFBFFF7BAF87F
:10252000FFF70CF9FFF784F800F00EF8FEE701461C
:102530000020842900D0C81C704710B500B90120C4
:1025400000F078FC002010BD10B500F051FD002017
:1025500010BD38B543684BB1012909D103200022D1
:1025600000901146012000F0ABFE38BD012901D0DA
:10257000002038BD03220021012000F07DFE040070
:1025800004D000231A46194600F012FF204638BD39
:1025900038B5002405460094FFF7B6FF90B16946B0
:1025A000284600F0B5FF012801D0FF2038BD009873
:1025B00088B10A494FF080500860BFF34F8FBFF3D6
:1025C0006F8F08E000231A461946284600F0F0FEF7
:1025D000012800D0FF24204638BD000004ED00E0B3
:1025E00038B505004FF0000000900FD00024481CC3
:1025F0000ED001B10C46FFF787FFB8B16A46002143
:10260000284600F0D3FF012816D104E0802038BD11
:102610004FF0FF34EFE7009880B109494FF0805048
:102620000860BFF34F8FBFF36F8F07E02146284646
:1026300001F00AF8012801D0FF2038BD002038BD84
:1026400004ED00E07FB50D4604464169B0F908008D
:1026500081B1A16971B1FFF76AFFD4E905128DE874
:102660000700D4E900102B46226901F013F903900A
:1026700004B070BDFFF75BFF03A9CDE90001208A1C
:102680002B4682B2D4E9001001F0D4F8012801D021
:102690000020EDE70398EBE72DE9F041184C0F46D9
:1026A000054666692068001D00F0D6FA38B9206832
:1026B00090F82C1001208840A1698143A161681C19
:1026C00007D137B12168BDE8F0410E48091D00F07F
:1026D00007BB20683544B5424560216805D2A06833
:1026E000BDE8F041091D00F0E3BA6068091D00F083
:1026F000DFFA206B854200D22563BDE8F08100003F
:102700002C000020800400202DE9F041054600F057
:10271000F3FA2E4C2069401C206120682C4F10B128
:10272000E06940B32DE025602069012829D1002609
:1027300006EB860007EB800000F0ACFA761C072E53
:10274000F6D323488C3000F0A5FA2148A03000F0E1
:10275000A1FA1F48B43000F09DFA1D48C83000F0BF
:1027600099FA1B48DC3000F095FA19488C3060600B
:102770001430A06005E02068E96AC06A884200D889
:102780002560E06A401CE062E96A0120A269884095
:102790001043A06101EB810007EB8000291D00F0D0
:1027A0009FFA00F0C9FAE06900280CD02068E96AB5
:1027B000C06A884207D207494FF080500860BFF3D3
:1027C0004F8FBFF36F8FBDE8F08100002C00002019
:1027D000A403002004ED00E030B4026C0B46002A94
:1027E0000BD0C1681144C1604468A14201D30168A3
:1027F000C16030BC1846FDF787BD30BC70472DE97D
:10280000F041856B174604460026026C82B1C7B1C1
:10281000E068FDF779FDE168206C091AE160226843
:10282000914202D26168081AE060022F16D017E0C8
:102830002068A8B9606801F0CBF806460020606007
:102840000EE0A068FDF760FD216CA0680844A06060
:102850006168884204D32068A06001E005B16D1E64
:102860006D1CA5633046BDE8F08110B5044690F8B4
:10287000510058B101280CD002280FD0502080F30D
:102880001188BFF34F8FBFF36F8FFEE7206B00F00F
:1028900067FA2046BDE8104000F062BA10BD0000A3
:1028A0000F4840F6B831420705D0C01D0C4A20F051
:1028B0000700821A891A0B4A00230144C2E9000367
:1028C0000839103A21F0070111604B600B600B1AB8
:1028D000C0E9001393604FF000405360D060704730
:1028E0009404002078000020144E154CA6F1C8076F
:1028F0004FF08058DFF84C9012E000BF00F0FCF978
:10290000F068C568281D00F0A7F92069401E206105
:10291000E068401EE06000F00FFA2846FFF7A5FFD0
:10292000E0680028EAD138680128F9D9C9F80080A0
:10293000BFF34F8FBFF36F8FF2E700006C040020EE
:102940002C00002004ED00E00346009829B102604D
:10295000C0E90F31012100F0E7BC0060F8E72DE984
:10296000F0479A46DDE9098481466FF00303206B46
:1029700003EB82021044089D20F00706700707D081
:10298000502080F31188BFF34F8FBFF36F8FFEE7A6
:1029900023180A5C83F834200A5C12B1401C10280A
:1029A000F6D3002784F84370072D00D30625E5628F
:1029B000C4E91157201D00F078F904F1180000F067
:1029C00074F92461C5F107006462A061E76484F8CA
:1029D000507052464946304600F028F92060B8F160
:1029E000000F01D0C8F80040BDE8F08730B51149AC
:1029F00000E011460A688242FBD34B685C188442AF
:102A000003D1406818444860084643681C18944243
:102A100009D1084C103C2468A24209D052681A44DB
:102A200042600A6812680260814200D0086030BDCE
:102A30000460F9E77800002010B5044600F05CF966
:102A4000A06B28B15FF0000400F076F9204610BDBD
:102A50000124F9E706484168096829B14168C96855
:102A6000C9684968016370474FF0FF31FAE7000019
:102A70002C00002008484068401C4FF0500080F3B4
:102A8000118804D0BFF34F8FBFF36F8FFEE7BFF302
:102A90004F8FBFF36F8FFEE780000020002150B101
:102AA0000A4B42699A420FD1806AA3F128029042F0
:102AB0000AD040B108E0502080F31188BFF34F8F57
:102AC000BFF36F8FFEE701210846704780040020A6
:102AD0002DE9F041044600F00FF994F9455004F156
:102AE000240609E0606A48B1304601F007F808B1F1
:102AF00000F0CEF96D1E6DB2002DF3DC4FF0FF3605
:102B000084F8456000F018F900F0F6F894F94450A4
:102B100004F1100709E0206948B1384600F0EEFFE3
:102B200008B100F0B5F96D1E6DB2002DF3DC84F82C
:102B30004460BDE8F04100F0FFB800002DE9F0412D
:102B40000546002700F0E8FA314E306808B9FFF773
:102B5000A7FEF06805424BD1C5B3083568070ED013
:102B600005F00700C0F108000544680707D05020B1
:102B700080F31188BFF34F8FBFF36F8FFEE72DB344
:102B80007068854234D82248103001460C6801E054
:102B900020460C466168A94202D221680029F7D17B
:102BA00031688C4224D0076821680160606808376A
:102BB000411B10290FD96019420708D0502080F31B
:102BC0001188BFF34F8FBFF36F8FFEE710E04160B6
:102BD0006560FFF70BFF61687068401A7060B2684B
:102BE000904200D2B060F06801430020C4E90001C7
:102BF00000F0BEFF780707D0502080F31188BFF3A4
:102C00004F8FBFF36F8FFEE73846BDE8F0810000BD
:102C1000680000200449086818B10868826C521CDA
:102C200082640868704700002C00002010B5031F64
:102C30004FF080741C601B1F21F001011960191FE7
:102C4000044B0B6014390A60091F6FF0020244380C
:102C50000A6010BD752A0008D0E9013201699A6046
:102C6000D0E901235A604A68824201D182684A60F1
:102C7000002202610868401E086008687047000072
:102C8000034B036003F1540008608020106070471C
:102C90009000002000F108014FF0FF32C0E901125E
:102CA000C16001610021016070470021016170472E
:102CB00030B50B685A1C02D000F1080202E002692C
:102CC00004E02246546825689D42FAD953684B6057
:102CD00099608A60516008610168491C016030BDDB
:102CE00042684A6093688B6093685960916008619C
:102CF0000168491C01607047502080F31188BFF3C0
:102D00004F8FBFF36F8F0A494868401C4860012805
:102D10000CD10848006810F0FF0F07D0502080F356
:102D20001188BFF34F8FBFF36F8FFEE7704700002E
:102D30008000002004ED00E00849486828B1401EEA
:102D4000486001D180F311887047502080F31188CA
:102D5000BFF34F8FBFF36F8FFEE7000080000020AE
:102D600070B5002827D0144DA0F108046168E86808
:102D7000014207D1502080F31188BFF34F8FBFF37A
:102D80006F8FFEE722683AB1502080F31188BFF3BD
:102D90004F8FBFF36F8FFEE78143616000F0BCF996
:102DA00060686968084468602046FFF71FFEBDE858
:102DB000704000F0DDBE70BD680000204FF0E020E4
:102DC00000210161816105494FF47A720968B1FB04
:102DD000F2F1491E4161072101617047280000207E
:102DE00010B5FDF737FA114910280ED300F1E02095
:102DF00090F8F0030A78904207D2502080F31188AF
:102E0000BFF34F8FBFF36F8FFEE7094800688968F3
:102E100000F4E060884207D9502080F31188BFF3A6
:102E20004F8FBFF36F8FFEE710BD000080000020C2
:102E30000CED00E010B5020014D00F48806B38B1E3
:102E4000502080F31188BFF34F8FBFF36F8FFEE7E1
:102E500000F062F900211046FFF71EFC00F088FE2A
:102E6000002807D105494FF080500860BFF34F8F0D
:102E7000BFF36F8F10BD00002C00002004ED00E0B8
:102E800002498A6A02604969416070472C0000204B
:102E900001490120486270472C00002010B50C4603
:102EA00050B1094909681831FFF702FF2046BDE813
:102EB00010400121FFF7F0BB502080F31188BFF3D1
:102EC0004F8FBFF36F8FFEE72C00002070B504001A
:102ED0004BD0A26CA2B1606C884200D30146E06A7C
:102EE000884242D0012A40D1204D2A6894420FD115
:102EF000502080F31188BFF34F8FBFF36F8FFEE731
:102F0000502080F31188BFF34F8FBFF36F8FFEE720
:102F1000E162A269002A02DBC1F10701A161144E3E
:102F200000EB8000616906EB800081421DD1201D0D
:102F3000FFF792FE012150B9E06A00EB800256F8DB
:102F4000222022B9AA6901FA00F08243AA61E06A4C
:102F5000AA6981401143A96100EB800006EB800063
:102F6000211DBDE87040FFF7BBBE70BD2C000020E6
:102F7000A403002070B504002BD01A4D28688442A9
:102F80002FD0FFF7B9FE2046FFF788FDE8B1201DDE
:102F9000FFF762FEE06A0121AA6981401143A9613D
:102FA000114900EB800001EB8000211DFFF798FE26
:102FB000E06A2968C96A884207D30C494FF08050FB
:102FC0000860BFF34F8FBFF36F8FBDE87040FFF70E
:102FD000B3BE502080F31188BFF34F8FBFF36F8FC4
:102FE000FEE770BD2C000020A403002004ED00E0EB
:102FF00010B586B00024039405AA04A903A804947C
:10300000FFF73EFEDDE903010094CDE90110002346
:103010000EA11048059A00F03DFC0F4900284863B6
:1030200011D0502080F31188BFF34F8FBFF36F8F03
:103030004FF0FF3008630120C8614C6106B0BDE865
:10304000104000F09FB806B010BD000049444C4548
:1030500000000000E92800082C00002070B504469C
:10306000FFF74AFE294D04B92C68201DFFF7F4FD37
:1030700058B9E06A264A00EB800152F8211021B9C4
:1030800001218140A8698843A861A06A18B104F1B0
:103090001800FFF7E1FD1E48211DDC30FFF720FE80
:1030A00094F850000026012801D184F85060FFF701
:1030B00043FEE86928B1FFF71FFEFFF7CBFCFFF7DF
:1030C0003BFE2868844213D1E86990B1A86B38B1FF
:1030D000502080F31188BFF34F8FBFF36F8FFEE74F
:1030E0000C494FF080500860BFF34F8FBFF36F8FD4
:1030F00070BD0748DC3000682969884201D12E6024
:1031000070BDBDE8704000F00FB800002C0000203A
:10311000A403002004ED00E00248816B491C816398
:10312000704700002C0000201448816B11B1012170
:1031300041627047002141628169B1FA81F1C1F1B8
:103140001F0101EB81020E4951F822306BB101EBF6
:10315000820101F108034A6852684A609A4201D12B
:1031600052684A60D16801607047502080F311882E
:10317000BFF34F8FBFF36F8FFEE700002C000020DE
:10318000A40300201CB537480168374A914207D193
:10319000502080F31188BFF34F8FBFF36F8FFEE78E
:1031A00000683149491E884207D1502080F31188B8
:1031B000BFF34F8FBFF36F8FFEE72C490878019064
:1031C000FF20087008788DF800009DF800009DF839
:1031D000002000F0F000904207D0502080F31188CA
:1031E000BFF34F8FBFF36F8FFEE79DF80000204BBA
:1031F00000F0500018700720986005E09DF800204E
:1032000052008DF80020401E9DF800201206F5D4D3
:103210009860032807D0502080F31188BFF34F8FA8
:10322000BFF36F8FFEE74FF440709860019808700D
:103230000C482030016841F470010160016841F0E0
:1032400070410160FFF7BAFD00205860FCF7CAFF2B
:103250000848016841F040410160FCF7AFFF0020E1
:103260001CBD000000ED00E071C20F4100E400E071
:103270008000002034EF00E0F8B517460E46050048
:1032800014D0DEB105FB06F04830FFF757FC040010
:103290000AD0002084F8460004F148023B4631463B
:1032A00028460094FFF750FB2046F8BD502080F3DD
:1032B0001188BFF34F8FBFF36F8FFEE70020E3E766
:1032C00038B5049D18B153B1CAB181B120E0502086
:1032D00080F31188BFF34F8FBFF36F8FFEE750204D
:1032E00080F31188BFF34F8FBFF36F8FFEE750203D
:1032F00080F31188BFF34F8FBFF36F8FFEE739B1B3
:10330000502080F31188BFF34F8FBFF36F8FFEE71C
:1033100048241C46012384F846302B460094FFF7CE
:1033200013FB204638BD000070B50D46040025D0C3
:10333000FFF7E2FCD4E90F20216802FB0011616075
:103340000021A1632168A1600A46D4E90F01401E53
:1033500000FB0121E16021464FF0FF3001F8440FEE
:10336000487004F110008DB1FFF794FC04F12400C3
:10337000FFF790FCFFF7E0FC012070BD502080F3C8
:103380001188BFF34F8FBFF36F8FFEE721690029CC
:10339000F0D000F0B3FB0028ECD004494FF080508F
:1033A0000860BFF34F8FBFF36F8FE3E704ED00E0DA
:1033B0002DE9FF4782B01D468A464FF00008040001
:1033C00003D0BAF1000F08D011E0502080F311882B
:1033D000BFF34F8FBFF36F8FFEE7206C38B15020E3
:1033E00080F31188BFF34F8FBFF36F8FFEE7022D7D
:1033F0000AD1E06B012807D0502080F31188BFF379
:103400004F8FBFF36F8FFEE700F070FA3F4F4FF022
:1034100000094FF0805648B9049838B1502080F325
:103420001188BFF34F8FBFF36F8FFEE7FFF764FC88
:10343000A06BE16B884207D3022D05D00498D0B170
:10344000B8F1000F1AD01EE02A4651462046FFF779
:10345000D6F9616A19B104F1240000F04FFB20B1E4
:103460003E60BFF34F8FBFF36F8FFFF765FC012006
:1034700006B0BDE8F087FFF75FFC22E06846FFF783
:10348000FFFC4FF00108FFF757FCFFF745FEFFF781
:1034900033FC94F94400401C01D184F8449094F921
:1034A0004500401C01D184F84590FFF745FC04A974
:1034B000684600F085F930B12046FFF709FB00F0BF
:1034C00057FB0020D4E7FFF717FCA06BE16B8842A5
:1034D00013D1FFF731FC04F110000499FFF7DEFC73
:1034E0002046FFF7F5FA00F043FB00289ED13E602E
:1034F000BFF34F8FBFF36F8F98E7FFF71DFC204698
:10350000FFF7E6FA00F034FB90E7000004ED00E07E
:1035100070B50E46040009D0206C78B1502080F3BD
:103520001188BFF34F8FBFF36F8FFEE7502080F3FA
:103530001188BFF34F8FBFF36F8FFEE7206848B944
:10354000606838B1502080F31188BFF34F8FBFF30C
:103550006F8FFEE7FFF744FC5020EFF3118580F3F7
:103560001188BFF34F8FBFF36F8FA16BE06B884261
:1035700018D994F94500491CA163411C04D0401C92
:1035800084F8450001200EE0606A0028FAD004F1BA
:10359000240000F0B3FA0028F4D0002EF2D001206D
:1035A0003060EFE7002085F3118870BD2DE9F0470A
:1035B00090468946040003D0B9F1000F08D011E00D
:1035C000502080F31188BFF34F8FBFF36F8FFEE75A
:1035D000206C38B1502080F31188BFF34F8FBFF3B8
:1035E0006F8FFEE7FFF7FCFB5020EFF3118680F3AF
:1035F0001188BFF34F8FBFF36F8FA76BF7B194F9AB
:10360000445049462046FFF7E7F87F1EA763681C31
:1036100004D06D1C84F84450012010E0206900287B
:10362000FAD004F1100000F069FA0028F4D0B8F1E3
:10363000000FF1D00121C8F80010EDE7002086F35B
:103640001188BDE8F08700002DE9F343002683B020
:103650000400354609D0206C78B1502080F31188E1
:10366000BFF34F8FBFF36F8FFEE7502080F31188B9
:10367000BFF34F8FBFF36F8FFEE700F037F9DFF82E
:103680003C814FF000094FF0805748B9049838B199
:10369000502080F31188BFF34F8FBFF36F8FFEE789
:1036A000FFF72AFBA06BC8B1401EA063206810B9C9
:1036B000FFF7B0FA6060206950B104F1100000F02B
:1036C0001DFA28B1C8F80070BFF34F8FBFF36F8F9A
:1036D000FFF732FB012005B0BDE8F083049808B184
:1036E00066B10FE03DB1502080F31188BFF34F8FDA
:1036F000BFF36F8FFEE7FFF71FFB5DE06846FFF744
:10370000BFFB0126FFF718FBFFF706FDFFF7F4FAF2
:1037100094F94400401C01D184F8449094F9450088
:10372000401C01D184F84590FFF706FB04A96846C8
:1037300000F046F80028204612D0FFF7C9F900F043
:1037400017FA2046FFF778F90028A9D09DB3FFF7B4
:10375000D3FA606A50B3206B0068C0F1070126E01D
:10376000FFF76AF9E0B1206838B9FFF7C5FA606879
:1037700000F07AF90546FFF7DFFA04F12400049916
:10378000FFF78CFB2046FFF7A3F900F0F1F90028C2
:1037900086D1C8F80070BFF34F8FBFF36F8F7FE7FC
:1037A0002046FFF795F900F0E3F979E7002160681A
:1037B000FFF78CFB9FE7FFE700208CE704ED00E0BC
:1037C0002DE9F0410C46050011D0C4B1FFF794FA81
:1037D000174B5A696E682068911B471C17D02F68D9
:1037E0009B6A9F4219D0964217D8012410E05020BE
:1037F00080F31188BFF34F8FBFF36F8FFEE7502028
:1038000080F31188BFF34F8FBFF36F8FFEE7002463
:10381000FFF792FA2046BDE8F081884205D9401AA8
:1038200020602846FFF72CFBF1E700202060DCE752
:103830002C0000202DE9FF5F8346DDE90E879946C5
:1038400016468A469000FFF779F905001CD05420EF
:10385000FFF774F9040014D00020256384F85100A8
:10386000CDE90240CDE900874B46324651465846E5
:10387000FFF775F82046FEF747FF012004B000F07F
:1038800006B82846FFF76CFA4FF0FF30F6E730BC79
:10389000BDE8C09FF0B585B0DDE90B640A9DA6B117
:1038A000DCB1542700972663022684F85160002675
:1038B00004AFCDE90246CDE90057FFF750F82046A6
:1038C000FEF722FF049805B0F0BD502080F3118868
:1038D000BFF34F8FBFF36F8FFEE7502080F3118847
:1038E000BFF34F8FBFF36F8FFEE700000548C1693C
:1038F00019B1806B18B10020704701207047022079
:10390000704700002C0000202DE9F0412E4C0027CC
:10391000A06B40B1206A401C2062606A00B10127A0
:103920003846BDE8F0816669761C666113D160682F
:10393000006838B1502080F31188BFF34F8FBFF378
:103940006F8FFEE76068A1686160A060A06A401C9C
:10395000A062FFF77FF8206BDFF87080864209D302
:103960006068006880B16068C068C5686868864241
:103970000DD220632068C06A00EB800158F8210056
:103980000128CAD90127C8E74FF0FF30F1E7281D09
:10399000FFF762F9A86A18B105F11800FFF75CF9A2
:1039A000E86A0121A26981401143A16100EB800115
:1039B00008EB8100291DFFF793F9E86A2168C96ABD
:1039C0008842CDD30127CBE72C000020A4030020A0
:1039D00070B504004FF0000140D0214D28688442AA
:1039E00007D0502080F31188BFF34F8FBFF36F8F44
:1039F000FEE7A06C38B1401EA064636CE26A9A4294
:103A00002CD040B12AE0502080F31188BFF34F8FB3
:103A1000BFF36F8FFEE7201DFFF71EF9114A01214A
:103A200050B9E06A00EB800352F8233023B9AB6948
:103A300001FA00F08343AB61606CE062C0F1070003
:103A4000A061E06AAB6981401943A96100EB800085
:103A500002EB8000211DFFF743F90121084670BDEC
:103A60002C000020A403002070B504004FF00000DB
:103A700038D0204DE16A2A68D26A914233D2A069D7
:103A8000002804DB2868C06AC0F10700A0611A4E54
:103A900001EB8101606906EB810188421ED1201D86
:103AA000FFF7DAF8012150B9E06A00EB800256F81E
:103AB000222022B9AA6901FA00F08243AA6128688B
:103AC000C06AE062AA6981401143A96100EB8000ED
:103AD00006EB8000211DFFF703F902E02868C06AA9
:103AE000E062012070BD616C2A68D26A9142F8D30D
:103AF00070BD00002C000020A40300202DE9F0413F
:103B0000C068C468ACB104F118000746FFF7A4F818
:103B1000154DA86B0126A0B139461448FFF7E0F80F
:103B2000E06A2968C96A88421CD901206E62BDE832
:103B3000F081502080F31188BFF34F8FBFF36F8F58
:103B4000FEE7201DFFF788F8E16AAA6906FA01F08E
:103B50001043A86101EB81000449B43901EB8000F6
:103B6000211DDBE70020E2E72C00002058040020A4
:103B70002DE9F0472C4D00242746A86B38B1FFF7FC
:103B8000BBF8A86B401EA863A86B40B146E050206C
:103B900080F31188BFF34F8FBFF36F8FFEE7296962
:103BA000224E0120D1B3A6F1B40980463068E8B1B5
:103BB000F068C46804F11800FFF74EF8201DFFF705
:103BC0004BF8E06AAA6908FA00F11143A96100EB19
:103BD000800109EB8100211DFFF782F8E06A296866
:103BE000C96A8842E2D3C5F82480DFE70CB1FEF74A
:103BF00031FF2C6A44B14646FFF786FE00B16E6283
:103C0000641EF9D100202862686A38B1084901278A
:103C100038070860BFF34F8FBFF36F8FFFF78CF843
:103C20003846BDE8F08700002C0000205804002032
:103C300004ED00E0D03C0008D91A0008FFFF0000A6
:103C400000000000800000000000000000000000F4
:103C5000DC3C0008391B00080000000000000000E8
:103C6000800000000000000000000000E83C0008A8
:103C70002D1A000800000000000000008000000075
:103C80000000000000000000000000000000000034
:103C90000102030406070809A0860100400D030085
:103CA000801A060000350C0040420F0080841E0080
:103CB00000093D0000127A000024F40000366E0175
:103CC0000048E801006CDC0200000000010203046F
:103CD0006C65645461736B31000000006D616C6C45
:103CE0006F635461736B32006B65795461736B332E
:103CF00000000000143D00080000002090000000BB
:103D000000220008A43D000890000020C01300001D
:103D10001022000800010000000000000000000068
:103D20000000000000000000000000000000000093
:103D300010000000010000000000000000093D002C
:103D40000000000000000000000000000000000073
:103D50000000000000000000000000000000000063
:103D60000000000000000000000000000000000053
:103D70000000000000000000000000000000000043
:103D80000000000000000000000000000000000033
:103D90000000000000000000AAAAAAAA000000007B
:043DA000000000001F
:040000050800018965
:00000001FF
